{
  "_format": "hh-sol-artifact-1",
  "contractName": "AgriEscrow",
  "sourceName": "contracts/Escrow.sol",
  "abi": [
    {
      "inputs": [],
      "stateMutability": "nonpayable",
      "type": "constructor"
    },
    {
      "anonymous": false,
      "inputs": [
        {
          "indexed": false,
          "internalType": "uint256",
          "name": "orderId",
          "type": "uint256"
        },
        {
          "indexed": false,
          "internalType": "address",
          "name": "buyer",
          "type": "address"
        },
        {
          "indexed": false,
          "internalType": "address",
          "name": "seller",
          "type": "address"
        },
        {
          "indexed": false,
          "internalType": "uint256",
          "name": "amount",
          "type": "uint256"
        }
      ],
      "name": "OrderPlaced",
      "type": "event"
    },
    {
      "anonymous": false,
      "inputs": [
        {
          "indexed": false,
          "internalType": "uint256",
          "name": "orderId",
          "type": "uint256"
        },
        {
          "indexed": false,
          "internalType": "address",
          "name": "seller",
          "type": "address"
        }
      ],
      "name": "PaymentReleased",
      "type": "event"
    },
    {
      "inputs": [],
      "name": "admin",
      "outputs": [
        {
          "internalType": "address",
          "name": "",
          "type": "address"
        }
      ],
      "stateMutability": "view",
      "type": "function"
    },
    {
      "inputs": [
        {
          "internalType": "uint256",
          "name": "_orderId",
          "type": "uint256"
        }
      ],
      "name": "confirmDelivery",
      "outputs": [],
      "stateMutability": "nonpayable",
      "type": "function"
    },
    {
      "inputs": [
        {
          "internalType": "address payable",
          "name": "_seller",
          "type": "address"
        }
      ],
      "name": "deposit",
      "outputs": [],
      "stateMutability": "payable",
      "type": "function"
    },
    {
      "inputs": [],
      "name": "orderCount",
      "outputs": [
        {
          "internalType": "uint256",
          "name": "",
          "type": "uint256"
        }
      ],
      "stateMutability": "view",
      "type": "function"
    },
    {
      "inputs": [
        {
          "internalType": "uint256",
          "name": "",
          "type": "uint256"
        }
      ],
      "name": "orders",
      "outputs": [
        {
          "internalType": "uint256",
          "name": "id",
          "type": "uint256"
        },
        {
          "internalType": "address payable",
          "name": "buyer",
          "type": "address"
        },
        {
          "internalType": "address payable",
          "name": "seller",
          "type": "address"
        },
        {
          "internalType": "uint256",
          "name": "amount",
          "type": "uint256"
        },
        {
          "internalType": "enum AgriEscrow.OrderStatus",
          "name": "status",
          "type": "uint8"
        }
      ],
      "stateMutability": "view",
      "type": "function"
    }
  ],
  "bytecode": "0x6080604052348015600f57600080fd5b50336000806101000a81548173ffffffffffffffffffffffffffffffffffffffff021916908373ffffffffffffffffffffffffffffffffffffffff160217905550610ae68061005f6000396000f3fe60806040526004361061004a5760003560e01c80632453ffa81461004f578063a85c38ef1461007a578063f340fa01146100bb578063f851a440146100d7578063fd84cb9714610102575b600080fd5b34801561005b57600080fd5b5061006461012b565b60405161007191906105fe565b60405180910390f35b34801561008657600080fd5b506100a1600480360381019061009c919061064a565b610131565b6040516100b295949392919061072f565b60405180910390f35b6100d560048036038101906100d091906107ae565b6101b4565b005b3480156100e357600080fd5b506100ec6103a3565b6040516100f991906107fc565b60405180910390f35b34801561010e57600080fd5b506101296004803603810190610124919061064a565b6103c7565b005b60025481565b60016020528060005260406000206000915090508060000154908060010160009054906101000a900473ffffffffffffffffffffffffffffffffffffffff16908060020160009054906101000a900473ffffffffffffffffffffffffffffffffffffffff16908060030154908060040160009054906101000a900460ff16905085565b600034116101f7576040517f08c379a00000000000000000000000000000000000000000000000000000000081526004016101ee90610874565b60405180910390fd5b6002600081548092919061020a906108c3565b91905055506040518060a0016040528060025481526020013373ffffffffffffffffffffffffffffffffffffffff1681526020018273ffffffffffffffffffffffffffffffffffffffff16815260200134815260200160016004811115610274576102736106b8565b5b8152506001600060025481526020019081526020016000206000820151816000015560208201518160010160006101000a81548173ffffffffffffffffffffffffffffffffffffffff021916908373ffffffffffffffffffffffffffffffffffffffff16021790555060408201518160020160006101000a81548173ffffffffffffffffffffffffffffffffffffffff021916908373ffffffffffffffffffffffffffffffffffffffff1602179055506060820151816003015560808201518160040160006101000a81548160ff02191690836004811115610359576103586106b8565b5b02179055509050507faf03488da094bc08f76858b3b2a0c36a13217c95790c77139137fc6e062ba9cd600254338334604051610398949392919061096a565b60405180910390a150565b60008054906101000a900473ffffffffffffffffffffffffffffffffffffffff1681565b60006001600083815260200190815260200160002090508060010160009054906101000a900473ffffffffffffffffffffffffffffffffffffffff1673ffffffffffffffffffffffffffffffffffffffff163373ffffffffffffffffffffffffffffffffffffffff1614610470576040517f08c379a0000000000000000000000000000000000000000000000000000000008152600401610467906109fb565b60405180910390fd5b60016004811115610484576104836106b8565b5b8160040160009054906101000a900460ff1660048111156104a8576104a76106b8565b5b146104e8576040517f08c379a00000000000000000000000000000000000000000000000000000000081526004016104df90610a67565b60405180910390fd5b60028160040160006101000a81548160ff021916908360048111156105105761050f6106b8565b5b02179055508060020160009054906101000a900473ffffffffffffffffffffffffffffffffffffffff1673ffffffffffffffffffffffffffffffffffffffff166108fc82600301549081150290604051600060405180830381858888f19350505050158015610583573d6000803e3d6000fd5b507f4156924bd7e340b19303af17bf5323d66fae5dc16f350319092e0839c8543683828260020160009054906101000a900473ffffffffffffffffffffffffffffffffffffffff166040516105d9929190610a87565b60405180910390a15050565b6000819050919050565b6105f8816105e5565b82525050565b600060208201905061061360008301846105ef565b92915050565b600080fd5b610627816105e5565b811461063257600080fd5b50565b6000813590506106448161061e565b92915050565b6000602082840312156106605761065f610619565b5b600061066e84828501610635565b91505092915050565b600073ffffffffffffffffffffffffffffffffffffffff82169050919050565b60006106a282610677565b9050919050565b6106b281610697565b82525050565b7f4e487b7100000000000000000000000000000000000000000000000000000000600052602160045260246000fd5b600581106106f8576106f76106b8565b5b50565b6000819050610709826106e7565b919050565b6000610719826106fb565b9050919050565b6107298161070e565b82525050565b600060a08201905061074460008301886105ef565b61075160208301876106a9565b61075e60408301866106a9565b61076b60608301856105ef565b6107786080830184610720565b9695505050505050565b61078b81610697565b811461079657600080fd5b50565b6000813590506107a881610782565b92915050565b6000602082840312156107c4576107c3610619565b5b60006107d284828501610799565b91505092915050565b60006107e682610677565b9050919050565b6107f6816107db565b82525050565b600060208201905061081160008301846107ed565b92915050565b600082825260208201905092915050565b7f416d6f756e74206d7573742062652067726561746572207468616e2030000000600082015250565b600061085e601d83610817565b915061086982610828565b602082019050919050565b6000602082019050818103600083015261088d81610851565b9050919050565b7f4e487b7100000000000000000000000000000000000000000000000000000000600052601160045260246000fd5b60006108ce826105e5565b91507fffffffffffffffffffffffffffffffffffffffffffffffffffffffffffffffff8203610900576108ff610894565b5b600182019050919050565b6000819050919050565b600061093061092b61092684610677565b61090b565b610677565b9050919050565b600061094282610915565b9050919050565b600061095482610937565b9050919050565b61096481610949565b82525050565b600060808201905061097f60008301876105ef565b61098c60208301866107ed565b610999604083018561095b565b6109a660608301846105ef565b95945050505050565b7f4f6e6c792062757965722063616e20636f6e6669726d00000000000000000000600082015250565b60006109e5601683610817565b91506109f0826109af565b602082019050919050565b60006020820190508181036000830152610a14816109d8565b9050919050565b7f496e76616c696420737461747573000000000000000000000000000000000000600082015250565b6000610a51600e83610817565b9150610a5c82610a1b565b602082019050919050565b60006020820190508181036000830152610a8081610a44565b9050919050565b6000604082019050610a9c60008301856105ef565b610aa9602083018461095b565b939250505056fea2646970667358221220b9ac7290476d679d630a6103ce593588f6853d9697eeec9a9d63ad0f1ca4f2ee64736f6c634300081c0033",
  "linkReferences": {},
  "deployedLinkReferences": {}
}